:020000040800F2
:1000000000800120A15A0008B5590008B75900081E
:10001000B9590008BB590008BD590008000000008C
:10002000000000000000000000000000BF590008B0
:10003000C159000800000000C3590008C559000854
:10004000F15A0008F15A0008F15A0008F15A000864
:10005000F15A0008F15A0008F15A0008F15A000854
:10006000F15A0008F15A0008F15A0008F15A000844
:10007000F15A0008F15A0008F15A0008F15A000834
:10008000F15A0008F15A0008F15A0008F15A000824
:10009000F15A0008F15A0008F15A0008F15A000814
:1000A000F15A0008F15A0008F15A0008F15A000804
:1000B000F15A0008F15A0008F15A0008F15A0008F4
:1000C000F15A0008F15A0008F15A0008F15A0008E4
:1000D000F15A0008F15A0008F15A0008F15A0008D4
:1000E000F15A0008F15A0008F15A0008F15A0008C4
:1000F000F15A0008F15A0008F15A0008F15A0008B4
:10010000F15A0008F15A0008F15A0008F15A0008A3
:10011000F15A0008F15A0008F15A0008F15A000893
:10012000F15A0008F15A0008F15A0008F15A000883
:10013000F15A0008F15A0008F15A0008F15A000873
:10014000F15A0008F15A0008F15A0008F15A000863
:10015000F15A0008F15A0008F15A0008F15A000853
:10016000F15A0008F15A0008F15A0008F15A000843
:10017000F15A0008F15A0008F15A00080000000086
:08018000F15A0008F15A0008D1
:1001900010B5054C237833B9044B13B10448AFF3C1
:1001A00000800123237010BD8800002000000000A3
:1001B000E869000808B5034B1BB103490348AFF3D6
:1001C000008008BD000000008C000020E8690008E5
:1001D00081F0004102E000BF83F0004330B54FEAF8
:1001E00041044FEA430594EA050F08BF90EA020F65
:1001F0001FBF54EA000C55EA020C7FEA645C7FEAF8
:10020000655C00F0E2804FEA5454D4EB5555B8BF1A
:100210006D420CDD2C4480EA020281EA030382EA8B
:10022000000083EA010180EA020281EA0303362D1D
:1002300088BF30BD11F0004F4FEA01314FF4801CF0
:100240004CEA113102D0404261EB410113F0004F02
:100250004FEA03334CEA133302D0524263EB4303B9
:1002600094EA050F00F0A780A4F10104D5F1200E57
:100270000DDB02FA0EFC22FA05F2801841F10001B2
:1002800003FA0EF2801843FA05F359410EE0A5F186
:1002900020050EF1200E012A03FA0EFC28BF4CF0B7
:1002A000020C43FA05F3C01851EBE37101F000456D
:1002B00007D54FF0000EDCF1000C7EEB00006EEB7A
:1002C0000101B1F5801F1BD3B1F5001F0CD3490804
:1002D0005FEA30004FEA3C0C04F101044FEA44525B
:1002E00012F5800F80F09A80BCF1004F08BF5FEAE2
:1002F000500C50F1000041EB045141EA050130BDC2
:100300005FEA4C0C404141EB010111F4801FA4F164
:100310000104E9D191F0000F04BF01460020B1FAB9
:1003200081F308BF2033A3F10B03B3F120020CDAF1
:100330000C3208DD02F1140CC2F10C0201FA0CF0CF
:1003400021FA02F10CE002F11402D8BFC2F1200C34
:1003500001FA02F120FA0CFCDCBF41EA0C019040EA
:10036000E41AA2BF01EB0451294330BD6FEA040433
:100370001F3C1CDA0C340EDC04F11404C4F120021E
:1003800020FA04F001FA02F340EA030021FA04F330
:1003900045EA030130BDC4F10C04C4F1200220FA87
:1003A00002F001FA04F340EA0300294630BD21FAC5
:1003B00004F0294630BD94F0000F83F4801306BF8B
:1003C00081F480110134013D4EE77FEA645C18BF7F
:1003D0007FEA655C29D094EA050F08BF90EA020F16
:1003E00005D054EA000C04BF1946104630BD91EA0E
:1003F000030F1EBF0021002030BD5FEA545C05D111
:100400004000494128BF41F0004130BD14F580044F
:100410003CBF01F5801130BD01F0004545F0FE41C3
:1004200041F470014FF0000030BD7FEA645C1ABFF8
:10043000194610467FEA655C1CBF0B46024650EA2F
:10044000013406BF52EA033591EA030F41F400215B
:1004500030BD00BF90F0000F04BF0021704730B5E1
:100460004FF4806404F132044FF000054FF00001B6
:1004700050E700BF90F0000F04BF0021704730B577
:100480004FF4806404F1320410F0004548BF40424C
:100490004FF000013EE700BF42004FEAE2014FEAA1
:1004A00031014FEA02701FBF12F07F4393F07F4F7C
:1004B00081F06051704732F07F4208BF704793F07F
:1004C0007F4F04BF41F40021704730B54FF4607492
:1004D00001F0004521F000411CE700BF50EA010295
:1004E00008BF704730B54FF000050AE050EA01023E
:1004F00008BF704730B511F0004502D5404261EBAE
:1005000041014FF4806404F132045FEA915C3FF4EE
:10051000D8AE4FF003025FEADC0C18BF03325FEA8B
:10052000DC0C18BF033202EBDC02C2F1200300FA3C
:1005300003FC20FA02F001FA03FE40EA0E0021FA61
:1005400002F11444BDE600BF70B54FF0FF0C4CF44F
:10055000E06C1CEA11541DBF1CEA135594EA0C0F01
:1005600095EA0C0F00F0DEF82C4481EA030621EA3C
:100570004C5123EA4C5350EA013518BF52EA033577
:1005800041F4801143F4801338D0A0FB02CE4FF029
:100590000005E1FB02E506F00042E0FB03E54FF059
:1005A0000006E1FB03569CF0000F18BF4EF0010E51
:1005B000A4F1FF04B6F5007F64F5407404D25FEA4D
:1005C0004E0E6D4146EB060642EAC62141EA555100
:1005D0004FEAC52040EA5E504FEACE2EB4F1FD0C42
:1005E00088BFBCF5E06F1ED8BEF1004F08BF5FEAC0
:1005F000500E50F1000041EB045170BD06F0004672
:1006000046EA010140EA020081EA0301B4EB5C041E
:10061000C2BFD4EB0C0541EA045170BD41F4801116
:100620004FF0000E013C00F3AB8014F1360FDEBF3B
:10063000002001F0004170BDC4F10004203C35DA17
:100640000C341BDC04F11404C4F1200500FA05F39A
:1006500020FA04F001FA05F240EA020001F000423B
:1006600021F0004110EBD37021FA04F642EB0601B1
:100670005EEA430E08BF20EAD37070BDC4F10C04DB
:10068000C4F1200500FA04F320FA05F001FA04F29F
:1006900040EA020001F0004110EBD37041F100018B
:1006A0005EEA430E08BF20EAD37070BDC4F1200596
:1006B00000FA05F24EEA020E20FA04F301FA05F2FE
:1006C00043EA020321FA04F001F0004121FA04F2A6
:1006D00020EA020000EBD3705EEA430E08BF20EA76
:1006E000D37070BD94F0000F0FD101F000464000B0
:1006F00041EB010111F4801F08BF013CF7D041EA32
:10070000060195F0000F18BF704703F00046520035
:1007100043EB030313F4801F08BF013DF7D043EA06
:100720000603704794EA0C0F0CEA135518BF95EABC
:100730000C0F0CD050EA410618BF52EA4306D1D143
:1007400081EA030101F000414FF0000070BD50EA62
:10075000410606BF1046194652EA430619D094EAEC
:100760000C0F02D150EA013613D195EA0C0F05D1D6
:1007700052EA03361CBF104619460AD181EA03012A
:1007800001F0004141F0FE4141F470014FF00000E2
:1007900070BD41F0FE4141F4780170BD70B54FF07D
:1007A000FF0C4CF4E06C1CEA11541DBF1CEA1355FD
:1007B00094EA0C0F95EA0C0F00F0A7F8A4EB0504DF
:1007C00081EA030E52EA03354FEA013100F08880D6
:1007D0004FEA03334FF0805545EA131343EA12639F
:1007E0004FEA022245EA111545EA10654FEA002654
:1007F0000EF000419D4208BF964244F1FD0404F50D
:10080000407402D25B084FEA3202B61A65EB030568
:100810005B084FEA32024FF480104FF4002CB6EB25
:10082000020E75EB030E22BFB61A754640EA0C00A5
:100830005B084FEA3202B6EB020E75EB030E22BFE5
:10084000B61A754640EA5C005B084FEA3202B6EB26
:10085000020E75EB030E22BFB61A754640EA9C00E5
:100860005B084FEA3202B6EB020E75EB030E22BFB5
:10087000B61A754640EADC0055EA060E18D04FEA73
:10088000051545EA16754FEA06164FEAC30343EA13
:1008900052734FEAC2025FEA1C1CC0D111F4801FE0
:1008A0000BD141EA00014FF000004FF0004CB6E7D9
:1008B00011F4801F04BF01430020B4F1FD0C88BF78
:1008C000BCF5E06F3FF6AFAEB5EB030C04BFB6EB83
:1008D000020C5FEA500C50F1000041EB045170BD76
:1008E0000EF0004E4EEA113114EB5C04C2BFD4EBA3
:1008F0000C0541EA045170BD41F480114FF0000E27
:10090000013C90E645EA060E8DE60CEA135594EAA2
:100910000C0F08BF95EA0C0F3FF43BAF94EA0C0FA5
:100920000AD150EA01347FF434AF95EA0C0F7FF41A
:1009300025AF104619462CE795EA0C0F06D152EA6E
:1009400003353FF4FDAE1046194622E750EA410652
:1009500018BF52EA43067FF4C5AE50EA41047FF463
:100960000DAF52EA43057FF4EBAE12E74A0011D215
:1009700012F5001211D20DD56FF47873B3EB6252F9
:100980000ED44FEAC12343F0004343EA505323FA05
:1009900002F070474FF00000704750EA013002D17A
:1009A0004FF0FF3070474FF00000704753B94AB91D
:1009B000002908BF00281CBF4FF0FF314FF0FF3067
:1009C00000F072B9ADF1080C6DE904CE00F006F844
:1009D000DDF804E0DDE9022304B070472DE9F047BB
:1009E000089E04468846002B4BD18A42154667D99B
:1009F000B2FA82F24AB1C2F1200701FA02F320FAF8
:100A000007F7954047EA030894404FEA154E230C38
:100A1000B8FBFEF71FFA85FC0EFB178843EA084374
:100A200007FB0CF1994209D9EB1807F1FF3080F070
:100A30001B81994240F21881023F2B445B1AA4B2F9
:100A4000B3FBFEF00EFB103344EA034400FB0CFC46
:100A5000A44509D92C1900F1FF3380F00781A44582
:100A600040F2048102382C4440EA0740A4EB0C0415
:100A700000271EB1D4400023C6E900433946BDE833
:100A8000F0878B4209D9002E00F0EB800027C6E9E1
:100A9000000138463946BDE8F087B3FA83F7002FE6
:100AA00047D18B4202D3824200F2FA80841A61EB72
:100AB000030301209846002EE0D0C6E90048DDE798
:100AC00002B9FFDEB2FA82F2002A40F08F80491BA1
:100AD0004FEA154E1FFA85F80127B1FBFEFC230CE7
:100AE0000EFB1C1143EA014308FB0CF1994207D9A4
:100AF000EB180CF1FF3002D2994200F2CD8084460F
:100B0000591AA3B2B1FBFEF00EFB101443EA0444E1
:100B100008FB00F8A04507D92C1900F1FF3302D2D9
:100B2000A04500F2B6801846A4EB080440EA0C4049
:100B30009FE7C7F1200CBB4022FA0CFE4EEA030EE1
:100B400001FA07F420FA0CF521FA0CF34FEA1E48DB
:100B50002543B3FBF8F92C0C08FB19331FFA8EFA66
:100B600044EA034309FB0AF49C4202FA07F200FA42
:100B700007F10BD91EEB030309F1FF3080F08780EA
:100B80009C4240F28480A9F1020973441B1BADB260
:100B9000B3FBF8F008FB103345EA034400FB0AFA04
:100BA000A24508D91EEB040400F1FF336BD2A24525
:100BB00069D90238744440EA0940A0FB0289A4EBD9
:100BC0000A044C45C2464B4654D351D0002E69D03E
:100BD000B1EB0A0564EB030404FA0CFCFD40FC4095
:100BE0004CEA0505C6E90054002747E7C2F1200397
:100BF00020FA03F7954001FA02F021FA03F34FEAD5
:100C0000154E3843010CB3FBFEF71FFA85F80EFBB7
:100C1000173341EA034107FB08F38B4204FA02F45D
:100C200007D9691807F1FF3C2FD28B422DD9023F1B
:100C30002944CB1A81B2B3FBFEF00EFB103341EA1C
:100C4000034100FB08F38B4207D9691800F1FF3C10
:100C500017D28B4215D902382944C91A40EA0747EE
:100C60003BE73746304609E70746E7E61846FBE626
:100C70004145ABD2B8EB020A69EB0E0201381346CC
:100C8000A4E76046E9E7184695E76746D1E781465D
:100C90007CE702382C4447E7ACF1020C2B442FE7E9
:100CA000384608E73746E9E6704700BF0000000015
:100CB00001F0FF01102A2BDB10F0070F08D010F80D
:100CC000013B013A8B422DD010F0070F42B3F6D111
:100CD000F0B441EA012141EA014122F007047FF02A
:100CE00000070023F0E80256083C85EA010586EA81
:100CF000010685FA47F5A3FA87F586FA47F6A5FABD
:100D000087F68EB9EED1F0BC01F0FF0102F00702C8
:100D100032B110F8013B013A83EA010313B1F8D173
:100D20000020704701387047002D06BF3546033854
:100D3000073815F0010F07D1013015F4807F02BF8D
:100D4000013015F4C03F0130F0BC0138704700BFDE
:100D50002DE9F0478AB081463D4CA36D43F08053A6
:100D6000A365A36D03F080530093009B01F03AF854
:100D7000A36D43F40043A365A36D03F40043019303
:100D8000019BA36C43F00203A364A36C03F0020372
:100D90000293029BE36C43F04003E364E36C03F0D3
:100DA00040030393039BE36C43F04003E364E36C71
:100DB00003F040030493049B4FF400730593022651
:100DC000069600250795032708974FF00608CDF8EB
:100DD0002480204C05A9204600F034FE4FF4006327
:100DE0000593069607950897CDF8248005A9204617
:100DF00000F028FE4FF48063059306964FF0010A39
:100E0000CDF81CA00897CDF8248005A9204600F055
:100E100019FE114C114B236067601023A360E5603D
:100E2000802323616561A561E5612562204600F0AC
:100E300051FDC9F85440C4F8289052463146392033
:100E400000F0D8FC392000F009FD0AB0BDE8F087B9
:100E50000010024000180048540100201C04024009
:100E600010B5144C204602F0D0F8012000F09CFC94
:100E7000204602F01BFC00B110BD0F4B236008237D
:100E8000E3610023A36063612361A3620722E2623E
:100E90004FF4E062E26023624FF40072A261636289
:100EA0004FF4827363602046FFF752FF204602F042
:100EB00054F8E1E7F0000020003C004008B503488A
:100EC00002F0A3F8FFF7CCFF08BD00BFF000002040
:100ED00010B5114802F0EAFB00B110BD0E4C0F4BEB
:100EE00023603023E3610023A36063612361A36275
:100EF0000722E2624FF4E062E26023624FF4007284
:100F0000A26163624FF4827363602046FFF720FFA3
:100F1000204602F022F8E0E7F0000020003C00400C
:100F200000B583B002A901F8010D064B1B68012230
:100F3000054802F080F810B903B05DF804FBFFF734
:100F4000BDFFF9E700000020F000002000B585B0EB
:100F5000002303934FF0FF330293084B1B68009369
:100F6000012303AA02A9064802F053F918B903980D
:100F700005B05DF804FBFFF7A1FFF8E700000020D3
:100F8000F000002000B587B00C4BDA6C42F0400254
:100F9000DA64DB6C03F040030093009B4FF4805352
:100FA00001930123029303930323049301A90448AB
:100FB00000F048FD07B05DF804FB00BF00100240E0
:100FC0000018004808B5FFF7ABFF08BD10B5FFF7E4
:100FD000D9FFFFF745FF01224FF48051064800F08A
:100FE000ABFE002404E0FF20FFF7ECFF0134E4B285
:100FF000092CF8D910BD00BF0018004810B5FFF744
:10100000C1FFFFF765FF01224FF48051064800F051
:1010100093FE002404E0FF20FFF7D4FF0134E4B284
:10102000092CF8D910BD00BF0018004808B50A46C1
:101030000146034802F054FA00B1FEE708BD00BFC4
:10104000F000002008B5FFF781FFC0B208BD000026
:1010500010B582B040F040008DF800000B0E8DF806
:101060000130C1F307438DF80230C1F307238DF837
:1010700003308DF804108DF8052000224FF48051C4
:101080000B4800F059FE002406E002AB234413F89D
:10109000080CFFF797FF0134052CF6D90A24FFF757
:1010A000D1FF10F0800F01D0013CF8D102B010BD8B
:1010B0000018004838B505464FF47F64FFF7C2FFBB
:1010C000A84202D00CB1013CF8E70CB1002038BDB9
:1010D0000320FCE730B583B01D4640F040008DF89A
:1010E00000000B0E8DF80130C1F307438DF802307C
:1010F000C1F307238DF803308DF804108DF8052017
:1011000000224FF480510B4800F016FE002406E048
:1011100002AB234413F8080CFFF754FF0134052CED
:10112000F6D9802D04D02846FFF7C4FF03B030BDA8
:101130000020FBE70018004808B501224FF4805159
:10114000034800F0F9FDFF20FFF73CFF08BD00BF9A
:101150000018004810B5FFF775FF00F01F040D2CB4
:10116000F9D801A353F824F0A11100085711000881
:10117000571100085711000857110008A311000863
:10118000571100085711000857110008571100089F
:1011900057110008AB11000857110008AB110008E7
:1011A0000524FFF74FFF0028FBD0204610BD00BFED
:1011B00010B5FFF78FFF20B90024FFF7BDFF2046D1
:1011C00010BD0124F9E708B5FFF742FF08BD000094
:1011D00030B583B00123952200210846FFF7E8FFD0
:1011E00018B10125284603B030BD054687224FF4CB
:1011F000D5710820FFF7E7FF01283BD02B4B0022D9
:101200001A70FFF799FFEDE7FFF71CFF02AB2344CD
:1012100003F8040C0134E4B2032CF5D9FFF78CFF7A
:101220009DF80640012CECD19DF80730AA2BE8D19F
:10123000642000F0B9FA0123FF2200213720FFF7D4
:10124000B7FF80BB0023FF224FF080412920FFF72A
:10125000AFFF0028ECD10A2000F0A6FAFF220021FF
:101260003A20FFF7B0FF04468DF8040060B1FFF7A5
:1012700063FFC6E72C46CFE7FFF7E4FE02AB23444B
:1012800003F8040C0134E4B2032CF5D99DF80430C2
:1012900013F0400F03D0054B02221A70E7E7034B0F
:1012A00001221A70E3E725469CE700BFA400002056
:1012B00030B585B005460023FF2219460920FFF707
:1012C00009FF38B9FE20FFF7F5FE002840F0BE8088
:1012D00000240BE0FFF730FF012005B030BDFFF721
:1012E000B1FE04AB234403F8100C01340F2CF6D9E3
:1012F000FF20FFF767FEFF20FFF764FEFFF71CFFEC
:101300009DF800309A092A70C3F383026A7003F0D3
:101310000303AB709DF80130EB709DF802302B7128
:101320009DF803306B719DF804301B01EB80EA8857
:101330009DF8053042EA1312EA8003F00F032B7286
:101340009DF80630DA096A72C3F38012AA72C3F3F9
:101350004012EA72C3F300122A73002068739B02E2
:1013600003F440632B612B699DF8072043EA820355
:101370002B612A699DF8083042EA93122A61C3F36F
:10138000C2022A7503F007036B759DF809305A09EC
:10139000AA75C3F38202EA755B0003F006032B769D
:1013A0002A7E9DF80A3042EAD3122A76C3F38012CD
:1013B0006A765B0003F07E03AB76AA7E9DF80B3065
:1013C00042EAD312AA7603F07F03EB769DF80C3045
:1013D000DA092A77C3F341126A77C3F38202AA7744
:1013E0009B0003F00C03EB77EA7F9DF80D3042EA97
:1013F0009312EA77C3F3401285F8202085F8210084
:1014000003F0010385F822309DF80E30DA0985F8E3
:101410002320C3F3801285F82420C3F3401285F8FB
:101420002520C3F3001285F82620C3F3810285F836
:10143000272003F0030385F828309DF80F305B0860
:1014400085F82930012385F82A3046E7FFF774FE36
:10145000012042E730B585B005460023FF2219463A
:101460000A20FFF737FE30B9FE20FFF723FE0028E1
:101470006AD100240BE0FFF75FFE012005B030BD0C
:10148000FFF7E0FD04AB234403F8100C01340F2CEC
:10149000F6D9FF20FFF796FDFF20FFF793FDFFF73A
:1014A0004BFE9DF800302B709DF801301B026B80C5
:1014B0006A889DF8023013436B809DF803301B0649
:1014C0006B606B689DF8042043EA02436B606B68B5
:1014D0009DF8052043EA02236B606B689DF80620A7
:1014E00013436B609DF807302B729DF808306B72C8
:1014F0009DF809301B06EB60EB689DF80A2043EA73
:101500000243EB60EB689DF80B2043EA0223EB609B
:10151000EB689DF80C201343EB602A7C9DF80D309E
:1015200042EA13122A741B0203F470636B826A8A04
:101530009DF80E3013436B829DF80F305B082B75BE
:1015400001236B75002099E7FFF7F6FD012095E771
:1015500008B5FFF753FDFFF73BFE012809D0094B03
:1015600001221A70084B1B78DBB2022B05D0012038
:1015700008BD044B00221A70FAE7FFF727FD002090
:10158000F6E700BF0C000020A400002010B50446C0
:10159000FFF78EFE04F12C00FFF75CFF2369013397
:1015A000227E023203FA02F2237AD9B201238B405F
:1015B000A36403FB02F363644FF4007262655B0A89
:1015C000236510BD2DE9F84305469146089C00238C
:1015D000FF224FF400711020FFF77CFD00283AD164
:1015E000214B1B78DBB2022B01D04FEA49294FF087
:1015F0000108002715E0FFF725FD05F8010B013470
:10160000B4F5007FF7D3184B1B78DBB2022B1DD04B
:1016100007F50077FFF716FDFFF714FD4FF0000800
:101620003446661EA4B1FFF787FD0023FF2207EBB7
:1016300009011120FFF74EFD90B9FE20FFF73AFD9A
:1016400010B14FF00108EBE70024D9E70137E1E7DB
:10165000FFF772FD01E04FF001084046BDE8F88356
:101660004FF00108F9E700BFA40000202DE9F8437E
:1016700080461746089C01224FF48051224800F012
:101680005BFB224B1B78DBB2022B00D07F024FF0BA
:101690000109002504E0013522E04FF0000934463D
:1016A000661E44B30023FF22E9191820FFF712FD3C
:1016B00030BBFF20FFF786FCFE20FFF783FC4FF4D2
:1016C00000714046FFF7B2FC642000F06DF80F4B4C
:1016D00000225A601B78DBB2022BDCD005F50075C6
:1016E000FFF7B0FCFFF7AEFCFFF734FD0528D4D0C0
:1016F0004FF00109D3E7FFF71FFD4846BDE8F88327
:101700004FF00109F9E700BF00180048A4000020CD
:101710007047002070470000104B1B680BB9012078
:10172000704710B504464FF47A70B0FBF3F30C4ADF
:101730001068B0FBF3F000F09FF868B90F2C01D9E6
:1017400001200AE0002221464FF0FF3000F052F85D
:10175000024B5C60002000E0012010BD1000002062
:101760001C00002010B5032000F032F80020FFF725
:10177000D3FF10B10124204610BD044604F06AF8DE
:10178000F9E70000034A1368034909680B44136032
:10179000704700BF9C01002010000020014B18681A
:1017A000704700BF9C01002038B50446FFF7F6FFE4
:1017B0000546B4F1FF3F02D0044B1B681C44FFF701
:1017C000EDFF401BA042FAD338BD00BF100000203F
:1017D000074AD36823F4E0631B041B0C000200F4E7
:1017E000E060184340F0BF6040F40030D0607047C4
:1017F00000ED00E030B4174BDB68C3F30223C3F104
:101800000704042C28BF04241D1D062D18D9033BF2
:101810004FF0FF3505FA04F421EA0401994005FA76
:1018200003F322EA0303194300280BDB0901C9B2C1
:1018300000F1604000F5614080F8001330BC704753
:101840000023E5E700F00F000901C9B2024B19546B
:10185000F4E700BF00ED00E014ED00E0002807DB36
:1018600000F01F02400901239340024A42F8203051
:10187000704700BF00E100E00138B0F1807F0AD27C
:10188000064B5860064AF02182F823100020986029
:1018900007221A6070470120704700BF10E000E087
:1018A00000ED00E070B4446C04F01C05066C0124EB
:1018B000AC407460046863608368102B05D00368D3
:1018C00099600368DA6070BC704703689A600368C7
:1018D000D960F8E7002869D010B403460168344A9B
:1018E000914245D8334A0A443349A1FB02121209F6
:1018F00092004264314A0264022283F8252018686B
:10190000016821F4FF4121F070019A68DC682243EC
:101910001C6922435C6922439C692243DC6922439F
:101920001C6A22430A4302609A68B2F5804F15D0C0
:10193000196C224A914226D0214A1168586C00F055
:101940001C040F20A04021EA0001116011685868B2
:101950005C6C04F01C04A040014311600020D863BB
:10196000012283F8252083F824005DF8044B70479A
:10197000144A0A441049A1FB02121209920042645F
:10198000114A0264B8E7A8321168586C00F01C04D0
:101990000F20A04021EA00011160116858685C6CBA
:1019A00004F01C04A04001431160D7E701207047F8
:1019B00007040240F8FFFDBFCDCCCCCC00000240B4
:1019C000A8040240F8FBFDBF0004024038B590F8BF
:1019D0002440012C33D0012480F8244090F8254085
:1019E000E4B2012C04D0002380F82430022038BD5A
:1019F0000446022084F825000020E063256828685A
:101A000020F0010028602046FFF74CFF236B5BB1FC
:101A10002268136843F00E0313602268136843F0D2
:101A2000010313600020E2E72268136823F0040337
:101A300013602268136843F00A031360EDE7022085
:101A4000D5E70000F0B482B0002341E0D0F82CC00C
:101A50002CEA040CC6F3C0049C4044EA0C04C462A3
:101A600086E0062400E00024B4403C430235664E84
:101A700046F82540654C2568D44304EA05064F68BE
:101A800017F4803F01D042EA0506604D2E606D6874
:101A900004EA05064F6817F4003F01D042EA050644
:101AA0005A4D6E60AD6804EA05064F6817F4801F52
:101AB00001D042EA0506554DAE60ED682C404E68F7
:101AC00016F4001F01D042EA0504504AD4600133E5
:101AD0000A6832FA03F400F0938001249C4022400B
:101AE000F5D04D68022D01D0122D10D1DE08083638
:101AF00050F826C003F00705AF000F25BD402CEAC3
:101B0000050C0D69BD4045EA0C0540F826500668F5
:101B10005F000325BD40ED4305EA060C4E6806F064
:101B20000306BE4046EA0C0606604E6806F1FF3C1E
:101B3000BCF1010F03D9112E01D0122E11D18668EC
:101B400005EA060CCE68BE4046EA0C06866046688A
:101B500026EA040C4E68C6F300169E4046EA0C06C0
:101B600046604E6806F0030CBCF1030F3FF46EAF05
:101B7000C46825408C68BC402C43C4604C6814F099
:101B8000805FA4D0224C256E45F001052566246EA9
:101B900004F001040194019C9D08AE1C1A4C54F8F9
:101BA000267003F00304A6000F24B44027EA0407BC
:101BB000B0F1904F3FF457AF164CA04216D004F549
:101BC0008064A04214D004F58064A04212D004F5D1
:101BD0008064A04210D004F58064A0420ED004F5C9
:101BE0008064A0423FF43DAF07243DE701243BE77A
:101BF000022439E7032437E7042435E7052433E7D3
:101C000002B0F0BC704700BF00000140000401407A
:101C10000010024000040048002231FA02F300F0F4
:101C20008380F0B52FE0062600E0002606FA04F4D3
:101C3000AC4260D005685400032606FA04F425433C
:101C4000056022FA06F5083550F8256002F007070E
:101C50004FEA870C0F2707FA0CF726EA070640F829
:101C600025608568E443254085604568DB431D4069
:101C70004560C5682C40C460C46A2340C362013219
:101C800031FA02F34FD00123934013EA010EF6D04C
:101C90009708BD1C254C54F8255002F00304A400FD
:101CA0000F2606FA04FC0CEA0505B0F1904FBCD0F3
:101CB0001F4EB04215D006F58066B04213D006F52F
:101CC0008066B04211D006F58066B0420FD006F5AE
:101CD0008066B0420DD006F58066B042A3D00726DC
:101CE000A4E70126A2E70226A0E703269EE7042632
:101CF0009CE705269AE70F4C26686FEA0E052E40F2
:101D0000266066682E406660A6682E40A660E6687B
:101D10003540E560054DBC1C55F8246026EA0C06EC
:101D200045F8246086E7F0BD704700BF0000014021
:101D300000040048000401400AB9816270478161D3
:101D400070470000024B186800F4C060704700BF85
:101D500000700040B0F5007F0FD01F4B1B6803F4EC
:101D6000C063B3F5806F34D01B4A136823F4C0639B
:101D700043F48063136000207047174B1B6803F423
:101D8000C063B3F5007F22D0134A136823F4C06305
:101D900043F400731360114B1A68322303FB02F300
:101DA0000F4AA2FB03239B0C013300E0013B0A4ACC
:101DB000526912F4806F01D0002BF7D1064B5B699A
:101DC00013F4806F01D1002070470320704700207A
:101DD00070470020704700BF007000401C000020CA
:101DE00083DE1B43024A536843F400735360704719
:101DF0000070004030B583B00546204B9B6D13F05A
:101E0000805F0BD0FFF79EFFB0F5007F17D0802DCD
:101E10001FD82DD0702D2DD000211BE0174CA36DA5
:101E200043F08053A365A36D03F080530193019B9E
:101E3000FFF788FFA36D23F08053A365E4E7802DAF
:101E400003D9A02D03D9022104E0002102E00121E1
:101E500000E003210A4A136823F007030B431360D1
:101E6000136803F007038B4206D0012003B030BD96
:101E70000221EFE70121EDE70020F7E70010024023
:101E800000200240284A9368D26802F0030213F04F
:101E90000C030AD00C2B06D0042B1FD0082B20D00B
:101EA0000020024610E0012AF6D11F4A126812F003
:101EB000080F0CD11C4AD2F89420C2F303221B490C
:101EC00051F8222043B100200C2B0DD07047164A48
:101ED0001268C2F30312F2E71046F5E71448002235
:101EE000F2E714480022EFE70F4BDB6803F003032F
:101EF000022B15D0032B15D00B4BD868C0F3021062
:101F00000130D968C1F3062102FB01F2B2FBF0F205
:101F1000D868C0F3416001304000B2FBF0F0D5E773
:101F2000034AE9E7034AE7E700100240B46A000801
:101F30000024F40000127A00002800F0D182F0B5ED
:101F400083B00446AD4B9D6805F00C05DE6806F0D5
:101F50000306036813F0100F5ED0E5B10C2D18D006
:101F6000A369002B00F0B880A44A136843F0010372
:101F70001360FFF713FC0746A04B1B6813F0020F1A
:101F800040F09780FFF70AFCC01B0228F4D9032316
:101F9000B9E2012EE4D1994B1B6813F0020F03D074
:101FA000A369002B00F09F82206A944B1B6813F0FA
:101FB000080F5ED0914B1B6803F0F00398425FD985
:101FC000FFF718FF002840F097828C4B1A6842F008
:101FD00008021A601A6822F0F002216A0A431A60A5
:101FE0005A6822F47F42E16942EA01225A60FFF70F
:101FF00049FF824B9B68C3F30313814AD35C03F010
:102000001F03D8407F4B18607F4B1868FFF784FB95
:102010000346002840F07782236813F0010F7AD03E
:10202000082D6FD00C2D6BD06368B3F5803F00F0A6
:102030009180B3F5A02F00F09380704B1A6822F4C2
:1020400080321A601A6822F480221A606368002BBA
:1020500000F09380FFF7A2FB0746684B1B6813F460
:10206000003F58D1FFF79AFBC01B6428F5D9032322
:1020700049E2624BD3F894301B0903F0F0039DE76B
:102080005E4B1A6842F008021A601A6822F0F002E9
:10209000216A0A431A605A6822F47F42E16942EADF
:1020A00001225A60206AFFF7A5FE00289FD0012375
:1020B00029E2524B1A6842F008021A601A6822F0AC
:1020C000F002216A0A431A605A6822F47F42E169E9
:1020D00042EA01225A609FE7484A136823F001034D
:1020E0001360FFF75BFB0746444B1B6813F0020FBE
:1020F00092D0FFF753FBC01B0228F5D9032302E25D
:10210000032E91D13D4B1B6813F4003F03D063684D
:10211000002B00F0F381236813F0020F4FD0042D41
:102120003CD00C2D38D0E368002B78D0334A1368AC
:1021300043F480731360FFF731FB06462F4B1B6897
:1021400013F4806F62D1FFF729FB801B0228F5D9B9
:102150000323D8E1294A136843F48033136075E7F9
:1021600003F18043A3F53C331A6842F480221A60DD
:102170001A6842F480321A6068E7FFF70FFB0746DF
:102180001E4B1B6813F4003FC5D0FFF707FBC01BB5
:102190006428F5D90323B6E1022EC4D1174B1B687E
:1021A00013F4806F03D0E368002B00F0A981134A79
:1021B000536823F0F853216943EA016353602368AD
:1021C00013F0080F56D06369002B3CD00B4AD2F8AD
:1021D000943043F00103C2F89430FFF7DFFA06466B
:1021E000064BD3F8943013F0020F43D1FFF7D6FA21
:1021F000801B0228F4D9032385E100BF00100240B0
:10220000E46A00081C00002014000020B74A53684C
:1022100023F0F853216943EA01635360CFE7B34ADF
:10222000136823F480731360FFF7B8FA0646AF4BC8
:102230001B6813F4806FC2D0FFF7B0FA801B02282E
:10224000F5D903235FE1A94AD2F8943023F00103C2
:10225000C2F89430FFF7A2FA0646A44BD3F89430A4
:1022600013F0020F06D0FFF799FA801B0228F4D969
:10227000032348E1236813F0040F7AD09B4B9B6D36
:1022800013F0805F0BD1994B9A6D42F080529A65A2
:102290009B6D03F080530193019B012600E0002613
:1022A000934B1B6813F4807F26D0A368012B37D093
:1022B000052B3DD08D4BD3F8902022F00102C3F8BE
:1022C0009020D3F8902022F00402C3F89020A36855
:1022D000002B3BD0FFF762FA0746844BD3F89030CF
:1022E00013F0020F44D1FFF759FAC01B41F28833B3
:1022F0009842F2D9032306E17D4A136843F48073C0
:102300001360FFF74BFA0746794B1B6813F4807F85
:10231000CBD1FFF743FAC01B0228F5D90323F2E023
:10232000724AD2F8903043F00103C2F89030CEE701
:102330006E4BD3F8902042F00402C3F89020D3F8FB
:10234000902042F00102C3F89020C0E7FFF726FA80
:102350000746664BD3F8903013F0020F08D0FFF712
:102360001DFAC01B41F288339842F2D90323CAE018
:102370005EBBA36A002B00F0C5800C2D76D0022B2B
:1023800029D05A4B1A6822F080721A601B6813F029
:10239000205F04D1554AD36823F00303D360534A26
:1023A000D36823F0887323F48033D360FFF7F6F902
:1023B00004464E4B1B6813F0007F55D0FFF7EEF933
:1023C000001B0228F5D903239DE0484A936D23F0B2
:1023D00080539365CDE7454A136823F080731360FB
:1023E000FFF7DCF90546414B1B6813F0007F06D070
:1023F000FFF7D4F9401B0228F5D9032383E03B4AB9
:10240000D3683C491940E36A206B013843EA001362
:10241000606B43EA0023E06B4008013843EA405315
:10242000206C4008013843EA4063A06B000943EA8E
:1024300040430B43D360136843F080731360D36849
:1024400043F08073D360FFF7A9F90446274B1B685C
:1024500013F0007F06D1FFF7A1F9001B0228F5D980
:10246000032350E000234EE000234CE0012B4DD02D
:102470001E4BDB6803F00301E26A914201D00123A5
:1024800041E003F07002216B0139B2EB011F01D072
:10249000012338E003F4FE42616BB2EB012F01D05F
:1024A000012330E003F40031A26B073A18BF012288
:1024B000914201D0012326E003F4C001E26B5208EF
:1024C000013AB1EB425F01D001231CE003F0C0638D
:1024D000226C5208013AB3EB426F19D0012312E08B
:1024E00001231846704701230DE000BF0010024091
:1024F000007000408C809DF9012304E0012302E07C
:10250000012300E00023184603B0F0BD0123FAE7E1
:102510000023F8E7002800F09B8070B504464E4B7E
:102520001B6803F007038B420CD24B4A136823F05D
:1025300007030B431360136803F007038B4201D0BA
:10254000012070BD0D46236813F0010F39D0636878
:10255000032B09D0022B26D063BB404A126812F02D
:10256000020F06D10120ECE73C4A126812F0007F0E
:1025700070D03A498A6822F0030213438B60FFF758
:102580000DF90646354B9B6803F00C036268B3EB0C
:10259000820F16D0FFF702F9801B41F28833984270
:1025A000F0D90320CDE72D4A126812F4003FE0D1A4
:1025B0000120C6E7294A126812F4806FD9D10120A0
:1025C000BFE7236813F0020F06D0244A936823F074
:1025D000F003A1680B4393601F4B1B6803F00703D4
:1025E000AB420CD91C4A136823F007032B4313603A
:1025F000136803F00703AB4201D00120A1E7236871
:1026000013F0040F06D0154A936823F4E063E168E1
:102610000B439360236813F0080F07D00F4A9368A9
:1026200023F46053216943EAC1039360FFF72AFC56
:102630000A4B9B68C3F30313094AD35C03F01F03DF
:10264000D840084B1860084B1868FFF765F878E722
:1026500001207047012074E7002002400010024072
:10266000E46A00081C00002014000020014B1868D8
:10267000704700BF1C00002008B5FFF7F7FF054BAF
:102680009B68C3F30223044AD35C03F01F03D840C2
:1026900008BD00BF00100240F46A000808B5FFF74B
:1026A000E5FF054B9B68C3F3C223044AD35C03F0E8
:1026B0001F03D84008BD00BF00100240F46A0008A4
:1026C000F8B55A4BDB6813F0030F18D0574BDB6893
:1026D00003F003030268934202D001252846F8BDA7
:1026E000002A00F0A080514BDB68C3F302130133D2
:1026F0004268934201D00125F0E700251AE0036803
:10270000022B59D0032B5ED0012B01D001250FE005
:10271000464A126812F0020F61D0444DEA6822F076
:1027200073024468013C43EA04131343EB60002541
:10273000002DD3D10F4604463C4A136823F0806332
:102740001360FFF72BF80646384B1B6813F0006F39
:1027500005D0FFF723F8801B0228F5D90325002DAB
:10276000BCD1002F3DD131490B6923F41F3323F431
:102770004073A068E2681209520442EA002213433F
:102780000B612A4A136843F080631360FFF706F871
:102790000646264B1B6813F0006F05D1FEF7FEFFBF
:1027A000801B0228F5D90325002D97D11F4A1369F4
:1027B000A1690B43136191E71C4A126812F4806F00
:1027C000ABD10125B4E7194A126812F4003FA4D135
:1027D000164A126812F4802F9FD10125A8E701251F
:1027E000A6E7012F0FD01148026922F0C06222F43F
:1027F000FE42A16863695B08013B5B0643EA012373
:1028000013430361BDE70948026922F4C00222F4C0
:10281000FE42A16823695B08013B5B0543EA012393
:1028200013430361ADE7012558E700BF00100240E4
:10283000F8B5514BDB6813F0030F18D04E4BDB6833
:1028400003F003030268934202D001252846F8BD35
:10285000002A00F08E80484BDB68C3F3021301337B
:102860004268934201D00125F0E700251AE0036891
:10287000022B59D0032B5ED0012B01D001250FE094
:102880003D4A126812F0020F61D03B4DEA6822F017
:1028900073024468013C43EA04131343EB600025D0
:1028A000002DD3D10F460446334A136823F08053DA
:1028B0001360FEF773FF06462F4B1B6813F0005F93
:1028C00005D0FEF76BFF801B0228F5D90325002DEC
:1028D000BCD1002F3DD128494B6923F41F3323F489
:1028E0004073A068E2681209520442EA00221343CE
:1028F0004B61214A136843F080531360FEF74EFF8B
:1029000006461D4B1B6813F0005F05D1FEF746FF1E
:10291000801B0228F5D90325002D97D1164A53694B
:1029200061690B43536191E7134A126812F4806F97
:10293000ABD10125B4E7104A126812F4003FA4D1CC
:102940000D4A126812F4802F9FD10125A8E70125B6
:10295000A6E70948426922F0C06222F4FE42A1685B
:1029600023695B08013B5B0643EA01231343436190
:10297000BFE701256AE700BF001002402DE9F041E2
:1029800082B00446036813F4006F2FD0436EB3F592
:10299000800F25D008D9B3F5000F10D0B3F5400F44
:1029A00040F09980002610E0002B40F09480002138
:1029B0000430FFF785FE06463EB1374618E05E4A12
:1029C000D36843F48033D36000265B4AD2F8883062
:1029D00023F44003616E0B43C2F88830002707E000
:1029E00000212030FFF724FF0646E5E700273E469A
:1029F000236813F4805F15D0A36EB3F1807F7AD083
:102A00006CD9B3F1007F70D0B3F1407F7AD1002E42
:102A10007BD1494AD2F8883023F04073A16E0B4332
:102A2000C2F88830236813F4003F00F08E80424BD8
:102A30009B6D13F0805F6AD13F4B9A6D42F08052DC
:102A40009A659B6D03F080530193019B4FF0010841
:102A50003A4A136843F480731360FEF79FFE0546FD
:102A6000364B1B6813F4807F05D1FEF797FE401BA1
:102A70000228F5D90326002E62D12F4BD3F89030CF
:102A800013F4407316D0D4F884209A4212D02A4A04
:102A9000D2F8903023F44073D2F8901041F4803192
:102AA000C2F89010D2F8901021F48031C2F8901042
:102AB000C2F8903013F0010F2CD1002E40F043816A
:102AC0001D4AD2F8903023F44073D4F884100B439D
:102AD000C2F8903035E001273E4689E793B90021DE
:102AE000201DFFF7EDFD064691E7134AD36843F436
:102AF0008033D3608BE7002104F12000FFF798FEBC
:102B0000064684E701273E468CE737468AE74FF0C2
:102B100000089DE7FEF742FE0546074BD3F89030CC
:102B200013F0020FC9D1FEF739FE401B41F2883382
:102B30009842F2D90326C0E700100240007000401E
:102B40003746B8F1000F40F00081236813F0010F01
:102B500008D09D4AD2F8883023F00303A16B0B43C1
:102B6000C2F88830236813F0020F08D0964AD2F8D2
:102B7000883023F00C03E16B0B43C2F888302368E4
:102B800013F0040F08D0904AD2F8883023F03003B5
:102B9000216C0B43C2F88830236813F0080F08D06B
:102BA000894AD2F8883023F0C003616C0B43C2F825
:102BB0008830236813F0100F08D0834AD2F8883089
:102BC00023F44073A16C0B43C2F88830236813F0E0
:102BD000200F08D07C4AD2F8883023F44063E16C9F
:102BE0000B43C2F88830236813F4007F08D0764A7C
:102BF000D2F8883023F44023E16D0B43C2F88830CB
:102C0000236813F4806F08D06F4AD2F8883023F419
:102C10004013216E0B43C2F88830236813F0400F35
:102C200008D0694AD2F8883023F44053216D0B4311
:102C3000C2F88830236813F0800F08D0624AD2F8B7
:102C4000883023F44043616D0B43C2F88830236819
:102C500013F4807F08D05C4AD2F8883023F44033E4
:102C6000A16D0B43C2F88830236813F4005F0FD0C6
:102C7000554AD2F8883023F04063E16E0B43C2F826
:102C80008830E36EB3F1006F65D0B3F1806F67D029
:102C9000236813F4002F0FD04B4AD2F8883023F06A
:102CA0004063216F0B43C2F88830236FB3F1006F8C
:102CB0005ED0B3F1806F60D0236813F4802F0FD003
:102CC000414AD2F8883023F04063616F0B43C2F869
:102CD0008830636FB3F1006F57D0B3F1806F59D074
:102CE000236813F4804F0FD0374AD2F8883023F08E
:102CF0004053A16F0B43C2F88830A36FB3F1805FDC
:102D000050D0B3F1005F55D0236813F4004F08D0C2
:102D10002D4AD2F8883023F08043E16F0B43C2F88C
:102D20008830236813F4803F09D0274AD2F88830CE
:102D300023F00043D4F880100B43C2F888303846A3
:102D400002B0BDE8F0813746FBE61F4A936D23F0E1
:102D500080539365F9E6D36843F48013D36097E713
:102D60000121201DFFF7ACFC002891D007468FE71A
:102D7000D36843F48013D3609EE70121201DFFF741
:102D80009FFC002898D0074696E7D36843F4801349
:102D9000D360A5E70121201DFFF792FC00289FD0FA
:102DA00007469DE70221201DFFF78AFC0028ABD0D3
:102DB0000746A9E7022104F12000FFF739FD0028AA
:102DC000A2D00746A0E700BF00100240F8B50546B4
:102DD0000F4616461C462B689B6837EA03030CBF58
:102DE00001230023B34237D0B4F1FF3FF3D0FEF705
:102DF000D5FC069BC01AA04201D2002CEBD12A6858
:102E0000536823F0E00353606B68B3F5827F0BD007
:102E1000AB6AB3F5005F14D0012385F85D30002361
:102E200085F85C30032018E0AB68B3F5004F02D0A2
:102E3000B3F5806FECD12A68136823F04003136068
:102E4000E6E72A68136823F4005313602A681368BE
:102E500043F400531360DFE70020F8BDF8B50746E0
:102E60000C4615461E4602E0B6F1FF3F0BD13A680C
:102E700093682340AB423BD0B4F5C06FF4D1002D32
:102E8000F2D1137BF0E7FEF789FC069BC01AB04233
:102E900001D2002EEBD13A68536823F0E00353606F
:102EA0007B68B3F5827F0BD0BB6AB3F5005F14D0AB
:102EB000012387F85D30002387F85C30032018E099
:102EC000BB68B3F5004F02D0B3F5806FECD13A6820
:102ED000136823F040031360E6E73A68136823F4AD
:102EE000005313603A68136843F400531360DFE73C
:102EF0000020F8BD70B582B004460D46164600921B
:102F00000B4600224FF4C051FFF7A8FFB8B9009656
:102F10002B46002280212046FFF758FFB8B90096C3
:102F20002B4600224FF4C0612046FFF797FF03466F
:102F300050B1236E43F020032366032304E0236E85
:102F400043F0200323660323184602B070BD236EAE
:102F500043F0200323660323F6E7002853D010B57F
:102F600004460023836290F85D30002B40D002239A
:102F700084F85D302268136823F040031360E3682F
:102F8000B3F5E06F39D90022B3F5706F04D0B3F513
:102F9000E06F01D00021A162216B21B9B3F5E06F90
:102FA0002ED9022323636368A1680B4321690B4375
:102FB00061690B43A16901F400710B43E1690B43A3
:102FC000216A0B43A06A216803430B60638B03F003
:102FD0000403616A0B43616B0B43E1680B43216897
:102FE00013434B6000202066012384F85D3010BD40
:102FF00080F85C3002F046FCB9E74FF48052C3E73A
:1030000001232363CFE70120704790B110B5044638
:10301000022380F85D300268136823F040031360D8
:1030200002F066FC0020206684F85D0084F85C00F5
:1030300010BD012070472DE9F04182B090F85C404E
:10304000012C00F0E4801E46154688460446012304
:1030500080F85C30FEF7A2FB074694F85D20D2B200
:10306000012A09D00220012384F85D30002384F86E
:103070005C3002B0BDE8F081B8F1000F00F0B9801B
:10308000002D00F0B880032384F85D300023236610
:10309000C4F83880A587E5872364A4F84430A4F8F1
:1030A00046302365E364A368B3F5004F1CD0236862
:1030B0001A6812F0400F03D11A6842F040021A60F9
:1030C000E368B3F5E06F33D963680BB1012D1BD111
:1030D000A26B23681288DA60A36B0233A363E38FC9
:1030E000013B9BB2E3870FE02268136843F48043FF
:1030F0001360DCE7FEF752FBC01BB04202D3B6F10F
:10310000FF3F7AD1002E7AD0E38F9BB2002B5BD0A9
:1031100023689A6812F0020FECD0A26B1288DA6072
:10312000A36B0233A363E38F013B9BB2E387EBE71F
:1031300063680BB1012D30D1E38F9BB2012B0BD90A
:10314000A26B23681288DA60A36B0233A363E38F58
:10315000023B9BB2E38720E0A26B236812781A73CC
:10316000A36B0133A363E38F013B9BB2E38714E0BE
:10317000A36B1B781373A36B0133A363E38F013B32
:103180009BB2E38709E0FEF709FBC01BB04202D304
:10319000B6F1FF3F35D1002E35D0E38F9BB29BB106
:1031A0002268936813F0020FEDD0E38F9BB2012BDE
:1031B000DED9A36B1B88D360A36B0233A363E38FB9
:1031C000023B9BB2E387E8E73A4631462046FFF7E9
:1031D00091FE08B120232366A36833B901932368C5
:1031E000DA6801929B680193019B236E6BB9002002
:1031F00039E7012037E7012035E7032033E70320D3
:1032000031E703202FE703202DE701202BE70220E1
:103210002FE72DE9F843DDF8208090F85C40012C81
:1032200000F05C811D4617460E460446012380F8D7
:103230005C30FEF7B3FA814694F85D00C0B2636873
:10324000012814D0B3F5827F09D00223012284F82B
:103250005D20002284F85C201846BDE8F883A3684E
:10326000002B40F02D81042801D00223EEE7002E30
:1032700000F02881002F00F02781002D00F026812A
:1032800094F85D30DBB2042B02D0052384F85D3066
:10329000002323662764A4F84650A4F84450A6638C
:1032A000E587A587E3642365E368B3F5E06F01D89C
:1032B000012D22D92268536823F480535360236878
:1032C0001A6812F0400F03D11A6842F040021A60E7
:1032D000E368B3F5E06F56D963680BB1012D0AD1ED
:1032E000A26B23681288DA60A36B0233A363E38FB7
:1032F000013B9BB2E387012525E02268536843F434
:1033000080535360DBE723689A6812F0010F10D0F6
:10331000B4F8462092B262B1DA68236C1A80236C4A
:1033200002332364B4F84630013B9BB2A4F8463024
:103330000125FEF733FAA0EB0900404503D3B8F1AD
:10334000FF3F40F0C580E38F9BB22BB9B4F8463005
:103350009BB2002B00F0A78023689A6812F0020F3E
:10336000D1D0E28F92B2002ACDD0002DCBD0A26B6B
:103370001288DA60A36B0233A363E38F013B9BB235
:10338000E3870025BFE763680BB1012D0ED1E38F02
:103390009BB2012B0CD9A26B23681288DA60A36B55
:1033A0000233A363E38F023B9BB2E387012547E02F
:1033B000A26B236812781A73A36B0133A363E38FA4
:1033C000013B9BB2E387F1E7E28F92B2012A0BD96E
:1033D000A26B1288DA60A36B0233A363E38F023B14
:1033E0009BB2E38700253CE0A26B12781A73A36BB3
:1033F0000133A363E38F013B9BB2E387002530E0F9
:103400002268536843F48053536001250CE0226C1A
:103410001B7B1370236C01332364B4F84630013BEB
:103420009BB2A4F846300125FEF7B8F9A0EB0900DD
:10343000404502D3B8F1FF3F4CD1B8F1000F4BD05B
:10344000E38F9BB21BB9B4F846309BB25BB32368E1
:103450009A6812F0020F04D0E28F92B20AB1002DE6
:10346000B2D123689A6812F0010FDDD0B4F846207B
:1034700092B2002AD8D0B4F8462092B2012AC6D916
:10348000DA68236C1A80236C02332364B4F8463064
:10349000023B9BB2A4F84630B4F846309BB2012BF5
:1034A000AED90125C0E74A4641462046FFF722FD36
:1034B000034600283FF4CAAE202323660123C5E655
:1034C0000223C3E60123C1E60123BFE60123BDE6D3
:1034D0000323BBE60323B9E60323B7E60223BBE6D7
:1034E00090F85C30012B00F0878010B50446012372
:1034F00080F85C3090F85D30DBB2012B05D0022300
:10350000002284F85C20184610BD002970D0002AE3
:1035100070D0032380F85D300023036681638287C7
:10352000C28703640365C364A0F84430A0F8463042
:103530008368B3F5004F2AD0636D314A1A63636D17
:10354000304ADA62636D304A5A63636D00229A63CF
:103550002268536823F480435360E368B3F5E06F57
:1035600004D8636D9B69B3F5806F16D02268E38F32
:103570000C32A16B606DFEF729FA034620B3236E6F
:1035800043F010032366012384F85D30B8E7026836
:10359000136843F480431360CEE7E38F13F0010F09
:1035A00008D12268536823F480435360E38F5B089B
:1035B000E387DBE72268536843F480435360E38F7B
:1035C0005B080133E387D1E72268116811F0400FEF
:1035D00003D1116841F04001116021684A6842F04E
:1035E00020024A6021684A6842F002024A6087E786
:1035F000012385E7012383E702231846704700BFB4
:103600000F3600083D3600081B360008704708B525
:10361000806AFFF7FBFF08BD704708B5806A026843
:10362000536823F003035360036E43F010030366F3
:10363000012380F85D30FFF7EFFF08BD30B583B0A0
:103640000546846AFEF7AAF82B681B6813F0200F62
:1036500023D12268536823F0200353602268536803
:1036600023F002035360024664212046FFF742FC28
:1036700018B1236E43F020032366A36833B9019386
:103680002368DA6801929B680193019B0023E3871A
:10369000012384F85D30236E23B92046FEF738F805
:1036A00003B030BD2046FFF7B7FFF9E790F85D00A3
:1036B000704700002DE9F0480446016883680269FC
:1036C000134342691343C26913430868A24A024084
:1036D00013430B602268536823F44053E1680B43A3
:1036E0005360A16922689D4B9A4201D0236A194315
:1036F000936823F430630B4393602368984A9342A2
:1037000027D0984A934238D0974A93424ED0974A4E
:10371000934261D0964A934274D0904A934200F00B
:103720008A8010258D4A934200F0AA80E369B3F5A0
:10373000004F00F03581082D00F2BF81DFE815F061
:103740007F0195019F01BD01AA01BD01BD01BD0120
:10375000B40102F55842D2F8882002F00302032A8D
:1037600009D8DFE802F0020481060125DAE7042522
:10377000D8E70825D6E71025D4E702F5E632D2F8D7
:10378000882002F00C020C2A0ED8DFE802F0070DA8
:103790000D0D090D0D0D6F0D0D0D0B000025C1E771
:1037A0000425BFE70825BDE71025BBE702F5E43295
:1037B000D2F8882002F03002102A09D005D9202A38
:1037C00056D0302A06D10825ACE71AB90025A9E75A
:1037D0000425A7E71025A5E702F5E232D2F88820F4
:1037E00002F0C002402A09D005D9802A42D0C02A5E
:1037F00006D1082596E71AB9002593E7042591E735
:1038000010258FE702F5E032D2F8882002F44072EA
:10381000B2F5807F0BD007D9B2F5007F2CD0B2F57E
:10382000407F06D108257DE71AB900257AE70425EF
:1038300078E7102576E702F5C832D2F8882002F43E
:103840004062B2F5806F0BD007D9B2F5006F15D08A
:10385000B2F5406F06D1082564E71AB9002561E783
:1038600004255FE710255DE702255BE7022559E7A0
:10387000022557E7022555E7022553E7022551E7C0
:10388000082D00F21D81DFE815F00C001B0114006B
:103890001B0111001B011B011B0109004FF400401B
:1038A00008E0FEF7E9FE28B90020D9E0FEF7EAFAC1
:1038B000F9E73048626802EB4203834200F202817A
:1038C000B0EB023F00F20081082D66D8DFE805F07A
:1038D00005652065306565655800FEF7CDFE00255D
:1038E000070E0602626850082B4616EB000B47F1E4
:1038F000000C58466146FDF759F803462846A3F5E3
:1039000040711D4A914200F2E1802268D360A7E035
:10391000560800252B46DFF864B04FF0000C1BEB77
:1039200006004CF10001FDF741F803462846E6E7A2
:10393000FEF7A8FA0025070E0602626850082B461B
:1039400016EB000B47F1000C58466146FDF72EF8C8
:1039500003462846D3E700BFF369FFEF008000402D
:10396000003801400044004000480040004C004046
:10397000005000400024F400FFFC0F00000024F47D
:103980005008002700252B4610F5000047F10001E4
:10399000FDF70CF803462846B1E701200023AEE707
:1039A000082D49D8DFE805F0051E29483448484865
:1039B0003F00FEF761FE6268530803EB4003B3FB70
:1039C000F2F39BB20020A3F110014FF6EF72914287
:1039D0007ED89AB222F00F02C3F342031343226847
:1039E000D3603DE0FEF75AFE6268530803EB4003E4
:1039F000B3FBF2F39BB20020E5E76268530803F1E2
:103A0000F47303F59043B3FBF2F39BB20020DAE7C3
:103A1000FEF738FA6268530803EB4003B3FBF2F396
:103A20009BB20020CFE76268530803F58033B3FBF5
:103A3000F2F39BB20020C6E701200023C3E7FEF7A4
:103A40001BFE636800EB5302B2FBF3F292B200205C
:103A5000A2F110014FF6EF7399423BD82368DA6068
:103A6000002222666266BDE8F088FEF717FE6368F2
:103A700000EB5302B2FBF3F292B20020E8E7636876
:103A80005A0802F5740202F51052B2FBF3F292B238
:103A90000020DDE7FEF7F6F9636800EB5302B2FBA6
:103AA000F3F292B20020D3E763685A0802F50042AD
:103AB000B2FBF3F292B20020CAE701200022C7E76E
:103AC0000120CDE70120CBE70120C9E70120C7E7AE
:103AD0000120C5E70120C3E7436A13F0010F06D0B8
:103AE0000268536823F40033816A0B435360436ACE
:103AF00013F0020F06D00268536823F48033C16AC2
:103B00000B435360436A13F0040F06D002685368F6
:103B100023F48023016B0B435360436A13F0080FB7
:103B200006D00268536823F40043416B0B43536093
:103B3000436A13F0100F06D00268936823F4805391
:103B4000816B0B439360436A13F0200F06D0026829
:103B5000936823F40053C16B0B439360436A13F0E3
:103B6000400F0AD00268536823F48013016C0B43A2
:103B70005360036CB3F5801F0BD0436A13F0800FC2
:103B800006D00268536823F40023816C0B43536012
:103B900070470268536823F4C003416C0B435360C1
:103BA000EBE72DE9F04105460F4616469846069C80
:103BB0002B68DB6937EA03030CBF01230023B34200
:103BC0001CD1B4F1FF3FF3D0FDF7E8FDA0EB0800F6
:103BD000A04201D8002CEBD12A68136823F4D073DB
:103BE00013602A68936823F00103936020236B67B6
:103BF000AB67002385F87030032000E00020BDE8AB
:103C0000F0812DE9F04182B01E46436F202B55D143
:103C100004460D469046002955D0002A55D090F80C
:103C20007030012B53D0012380F870300023C3671C
:103C300021234367FDF7B2FD0746A4F85080A4F89E
:103C40005280A368B3F5805F02D04FF0000813E004
:103C5000236913B14FF000080EE0A84600250BE0E1
:103C600038F8023B2268C3F308031385B4F85230D6
:103C7000013B9BB2A4F85230B4F852309BB273B1FE
:103C800000963B46002280212046FFF78AFF00BBBA
:103C9000002DE5D0236815F8012B1A85E6E700967C
:103CA0003B46002240212046FFF77BFF034690B9A8
:103CB00020226267002284F8702000E00223184668
:103CC00002B0BDE8F0810123F9E70123F7E7022301
:103CD000F5E70323F3E70323F1E730B583B00446A8
:103CE0000023C367FDF75AFD054623681B6813F0E0
:103CF000080F0CD123681B6813F0040F15D1202383
:103D00006367A367002084F8700003B030BD6FF0D4
:103D10007E430093034600224FF400112046FFF734
:103D200040FF0028E6D00320EFE76FF07E430093CA
:103D30002B4600224FF480012046FFF732FF002877
:103D4000DDD00320E1E768B310B50446436F03B349
:103D5000242363672268136823F00103136020465D
:103D6000FFF7A8FC012813D0636ABBB92268536827
:103D700023F4904353602268936823F02A039360EE
:103D80002268136843F0010313602046FFF7A5FF84
:103D900010BD80F8703001F0C3FDD9E72046FFF771
:103DA0009BFEE3E70120704708B5044B03EB80025C
:103DB000526852680344187A904708BDD400002026
:103DC00008B5084B1B5C53B9064B01221A5403EB90
:103DD0008002526812681844007A904708BD00209B
:103DE000FCE700BFD400002038B5044C04EB80058C
:103DF0006D68AD680444207AA84738BDD40000201F
:103E000038B5044C04EB80056D68ED680444207AF5
:103E1000A84738BDD400002010B5044B03EB800444
:103E2000646824690344187AA04710BDD4000020B8
:103E3000002070474278007840EA02207047C2783C
:103E4000837843EA0222437843EA0223007840EA77
:103E5000032070470170090A417070470170C1F377
:103E600007234370C1F307438370090EC170704785
:103E700013462AB10A78027001300131013BF9D1B1
:103E8000704701700130013AFBD1704730B4451CD6
:103E9000037808781B1A013A04D04C1C28462146A6
:103EA000002BF4D0184630BC704700E00130037896
:103EB0000BB18B42FAD118467047000030B4002590
:103EC0002B4601E001250133012B15D81A01174CAF
:103ED000A258002AF6D00468A242F4D1134A02EB99
:103EE0000312546882689442EDD1104A02EB031227
:103EF000946842699442E6D1022B0AD0A1B90B4AD8
:103F000002EB03139B89B3F5807F07D0002030BC00
:103F100070472DB9022905D10020F8E71020F6E7F7
:103F20000020F4E71220F2E71020F0E7AC000020B8
:103F3000002000E00130012804D80301034AD358CF
:103F4000002BF7D1023818BF01207047AC000020C9
:103F500070B4002300E00133012B13D81A01244C64
:103F6000A45802689442F6D1214A02EB0312546825
:103F700082689442EFD11E4A02EB031294684269B0
:103F80009442E8D1022B29D021B1194A02EB031245
:103F9000928952BB21BB164A02EB0312918901316F
:103FA00089B2134A02EB03129181581C70BC70470E
:103FB0000133012B04D81A010D4CA258002AF7D165
:103FC000022B10D006680A4D1C012A192E51846854
:103FD00054604069906000209081D5E70023E8E7B5
:103FE0004FF48071DDE70020E0E70020DEE700BF4E
:103FF000AC0000200138012815D80D4B03EB00134D
:104000009B89B3F5807F03D01BB1013B9BB200E0DD
:104010000023074A02EB0012938133B90301002009
:10402000034AD0507047022070470020704700BFFD
:10403000AC000020002303E05DF8044B704701331F
:10404000012B11D81A0109498A588242F7D110B4BC
:104050001A0100248C500133012BEDD81A010349B9
:104060008A588242F7D1F3E7704700BFAC000020C6
:1040700002394369023B8B4204D94389806A01FBC0
:1040800003007047002070470268C36A0433490A7E
:104090005289B1FBF2F1186830B1814202D3091A9A
:1040A0000833F8E758680844704770B506460D466F
:1040B00001F11A00FFF7BEFE3378032B00D070BD6C
:1040C000044605F11400FFF7B5FE44EA0040F6E7A8
:1040D00070B506460C46154691B204F11A00FFF77A
:1040E000B9FE3378032B00D070BD290C04F1140005
:1040F000FFF7B0FEF8E700002DE9F84F82468B4647
:104100000F6800F124090B2220214846FFF7B9FE71
:10411000002633464FF008082CE001357B5D2F2B3D
:10412000FBD05C2BF9D03D44CBF80050002E43D09F
:104130009AF82430E52B35D0202C37D804238AF880
:104140002F30002028E008264FF00B0811E014F073
:10415000800F23D121461948FFF7A7FE50BBA4F1D9
:104160006103DBB2192B01D8203CE4B209F8064008
:1041700001362B465D1CFC5C202CD4D92F2CCDD0D5
:104180005C2CCBD02E2C01D0B045E0D8B8F10B0F71
:104190000ED02E2CD7D00620BDE8F88F803C084BDF
:1041A0001C5DD7E705238AF82430C5E70023C6E75E
:1041B0000620F1E70620EFE70620EDE7FC6A00089D
:1041C000006A0008016809B10A4603E04FF0FF33B6
:1041D00008E001321378202B01D93A2BF9D13A2B80
:1041E00002D000231846704710B44C1C0B78303BAB
:1041F000092B08D8A24209D15BB9013202601846E6
:104200005DF8044B70474FF0FF33F8E74FF0FF3392
:10421000F5E74FF0FF33F2E701600023436083606E
:10422000704738B50D46A8B104460368ABB11A789B
:10423000AAB18188DA88914203D0092000232B603B
:1042400038BD5878FFF7B0FD10F0010F0AD1236890
:104250000020F4E709200023F1E70920EFE7092017
:104260000023ECE709200023E9E7F8B5C3780BB990
:104270000020F8BD0446C56A00F1300701232A4634
:1042800039464078FFF7BCFDA8B90023E370236AE4
:10429000EB1AA269934210D2A678012E09D9A3691C
:1042A0001D4401232A4639466078FFF7A9FD013EE7
:1042B000F3E70020DDE70120DBE70020D9E770B558
:1042C000C36A8B4212D004460D46FFF7CEFF064666
:1042D00068B901232A4604F130016078FFF784FDB4
:1042E00010B101264FF0FF35E56200E000263046B0
:1042F00070BD000010B504460023C3704FF0FF33BB
:10430000C362FFF7DCFF18BB04F22E20FFF792FD1B
:104310004AF6552398421DD194F83030E92B05D048
:10432000236B03F0FF130F4A934215D104F166008B
:10433000FFF785FD20F07F400B4B98420ED004F133
:104340008200FFF77CFD094B984209D1002002E072
:10435000042000E0032010BD0220FCE70020FAE763
:104360000220F8E7EB0090004641540046415433E8
:104370002DE9F04784B00F46164600230B60FFF787
:1043800021FF051EC0F24581B74B03EB85031C6A74
:10439000002C00F042813C6006F0FE06237873B1E9
:1043A0006078FFF701FD10F0010F08D1002E00F03A
:1043B000368110F0040F40F0348100202AE1002300
:1043C0002370E8B26070FFF7FBFC10F0010F40F0C3
:1043D0002A811EB110F0040F40F0278100212046F1
:1043E000FFF788FF022800F0B6800026042800F0BE
:1043F0001E81012800F21D8104F13B00FFF71AFD28
:10440000B0F5007F40F0178104F14600FFF712FD80
:10441000074620B904F15400FFF711FD0746A761D4
:1044200094F84020A270531EDBB2012B00F20581EC
:1044300007FB02F594F83D80A4F80A80B8F1000F5C
:1044400000F0FD8008F1FF3318EA030F40F0F98017
:1044500004F14100FFF7EEFC8246208110F00F0FBF
:1044600040F0F18004F14300FFF7E4FC814620B9FD
:1044700004F15000FFF7E3FC814604F13E00FFF732
:10448000D9FC0146002800F0E080421902EB1A1224
:104490009145C0F0DC80A9EB0203B3FBF8F3002BDD
:1044A00000F0D7804FF6F57083426CD94FF00309C6
:1044B00040F6F570834201D84FF0010903F102087C
:1044C000C4F81480E6618B1923623244A262B9F108
:1044D000030F5BD0BAF1000F00F0C1802B44636280
:1044E000B9F1020F63D008EB480208F0010303EBB7
:1044F000520303F2FF13B7EB532FC0F0B2804FF01B
:10450000FF332361E36080232371B9F1030F51D09E
:1045100084F80090544A938C01339BB29384E380D7
:104520002046FFF787FD002074E0002004AB03EB7A
:10453000850343F8100C0135032D0ED804F130002B
:104540002B0103F5DF7318440379002BEDD00830FD
:10455000FFF775FCEAE70025EEE700250AE03146A3
:104560002046FFF7C7FE01287FF640AF0135032D37
:104570003FF63CAF04AB03EB850353F8106C002E01
:10458000EDD10320F2E74FF0020991E704F15A0060
:10459000FFF750FC00285ED1BAF1000F5DD104F1A5
:1045A0005C00FFF74CFC60624FEA8803A1E74FEA2A
:1045B00048039EE704F16000FFF73CFC0128A7D107
:1045C000711C2046FFF77BFE0028A1D10023237138
:1045D00004F22E20FFF72EFC4AF65523984297D17D
:1045E00004F13000FFF72BFC204B984290D104F5EA
:1045F0000570FFF724FC1E4B984289D104F5067024
:10460000FFF71DFC206104F50770FFF718FCE06060
:104610007EE70B2004B0BDE8F0870C20FAE700200D
:10462000F8E70A20F6E70320F4E70A20F2E7012082
:10463000F0E70D20EEE70D20ECE70D20EAE70D2076
:10464000E8E70D20E6E70D20E4E70D20E2E70D2086
:10465000E0E70D20DEE70D20DCE70D20DAE70D2096
:10466000D8E70D20D6E700BFAC00002052526141D0
:10467000727241612DE9F04701297AD943698B4271
:1046800079D917460C4606460378022B43D0032BF4
:1046900054D0012B01D002256EE001EB5108016AD4
:1046A00001EB5821FFF70BFE0546002864D106F107
:1046B000300A08F10109C8F3080814F001041FD0FA
:1046C0001AF9083003F00F033A0102F47F62134332
:1046D000DBB20AF808300123F370316A01EB59218B
:1046E0003046FFF7ECFD0546002845D1C9F308091F
:1046F00044B1C7F307120AF809200123F3703BE025
:10470000FBB2E6E71AF9092022F00F02C7F30327EC
:104710003A43D2B2EFE7016A01EB1421FFF7CFFD74
:10472000054648BB06F13000640004F4FF74B9B2DA
:104730002044FFF78FFB0123F3701DE0016A01EBBA
:10474000D411FFF7BCFD0546B0B927F0704706F15C
:104750003003A10001F4FE715C182046FFF76FFBE7
:1047600000F0704139432046FFF778FB0123F370D6
:1047700002E0022500E002252846BDE8F087F8B5F2
:104780000668012953D973698B4252D90C46337894
:10479000022B2BD0032B39D0012B01D0012047E075
:1047A00001EB5105316A01EB55213046FFF787FDDA
:1047B000002840D16F1CC5F30805354495F83050EA
:1047C000316A01EB57213046FFF779FDB0BBC7F3E3
:1047D0000803334493F8300045EA002014F0010F39
:1047E00001D0000924E0C0F30B0021E0316A01EBA5
:1047F00014213046FFF763FD18BB06F1300061005D
:1048000001F4FF710844FFF715FB11E0316A01EB79
:10481000D4113046FFF753FDB0B93036A10001F492
:10482000FE703044FFF70BFB20F0704000E00120E9
:10483000F8BD0120FCE74FF0FF30F9E74FF0FF3003
:10484000F6E74FF0FF30F3E74FF0FF30F0E72DE9E8
:10485000F0410768B1F5001F3BD206460D4611F046
:104860001F0F39D1716184681CB93B78022B00D9C4
:104870007C6A94B93B89B3EB551F2FD97B6AF361EE
:10488000B461F36993B303EB5523F3613037C5F398
:1048900008053D44356200201CE0B7F80A804FEA65
:1048A000482845450FD321463046FFF768FF0446A8
:1048B000B0F1FF3F14D0012814D97B69834213D98A
:1048C000A5EB0805EDE721463846FFF7D1FBF0617F
:1048D000D6E70220BDE8F0810220FBE70220F9E7DD
:1048E0000120F7E70220F5E70220F3E70220F1E7D5
:1048F0002DE9F04107460668884631B9F5688DB163
:104900007369AB420FD801250DE0FFF738FF03466E
:10491000012847D9B0F1FF3F49D07269824246D899
:10492000454600E001252C460CE021463846FFF7BD
:1049300026FF034670B1012839D0B0F1FF3F36D0D1
:10494000AC4233D001347369A342EED8012D2BD988
:104950000224EAE74FF0FF3221463046FFF78AFE95
:10496000034610B9B8F1000F0ED1A3B9F460326953
:104970007369023B9A4201D8013A3261337943F0BC
:1049800001033371234612E0224641463046FFF7C9
:1049900071FE0346E9E7012B01D0012307E04FF048
:1049A000FF3304E0012302E0002300E00023184667
:1049B000BDE8F081F8B50E46056801292ED90746F5
:1049C00011466B69B3422CD952B14FF0FF322846E1
:1049D000FFF750FE844618B125E02646A24222D9B0
:1049E00031463846FFF7CBFE0446F0B101281FD010
:1049F000B0F1FF3F1FD0002231462846FFF73AFEB4
:104A0000844680B92B696A69911E8B42E5D20133D5
:104A10002B612B7943F001032B71DEE74FF0020C81
:104A200001E04FF0020C6046F8BD4FF0000CFAE7D1
:104A30004FF0020CF7E74FF0010CF4E72DE9F843D3
:104A400006684569C369002B6ED02035B5F5001F97
:104A50006CD288460446C5F308073FB90133C361E9
:104A6000816979B93389B3EB551F07D9656106F1BF
:104A700030033B4423620020BDE8F8830023C36178
:104A80000420F9E77389013B13EA5523EED1FFF7C0
:104A900076FE814601284BD9B0F1FF3F4AD07369B9
:104AA000834239D8B8F1000F11D0A1692046FFF731
:104AB0001FFF814600283FD001283FD0B0F1FF3FC3
:104AC0003ED03046FFF7D1FB28B10120D4E70023C8
:104AD000E3610420D0E74FF40072002106F13000BA
:104AE000FFF7CFF949463046FFF7C2FAF0624FF0C0
:104AF0000008738998450BD20123F3703046FFF705
:104B0000B4FBF8B908F10108F36A0133F362F0E786
:104B1000F36AA3EB0803F362C4F8189049463046E1
:104B2000FFF7A6FAE061A1E70420A5E70420A3E7C8
:104B30000220A1E701209FE707209DE702209BE7D5
:104B4000012099E7012097E770B504460668002127
:104B5000FFF77DFE054640B1284670BD0021204686
:104B6000FFF76CFF05460028F6D1E1693046FFF7F4
:104B7000A6FB05460028EFD1206A03787BB1C37AF3
:104B800003F03F03A371C37A13F0080FE6D10B22A1
:104B900004F12401FFF77AF90028DFD1DCE70425CE
:104BA000DAE730B583B004460191056801E00133CE
:104BB0000193019B1A782F2AF9D05C2AF7D00022A2
:104BC000A2601B781F2B1ED901A92046FFF794FA7B
:104BD000034600BB2046FFF7B7FF94F82F2003469B
:104BE000E0B912F0040F16D1A37913F0100F1CD006
:104BF00005F130016369C3F3080319442846FFF740
:104C000054FAA060E0E7802384F82F301146204654
:104C1000FFF71DFE0346184603B030BD0428FAD145
:104C200012F0040FF7D10523F5E70523F3E7F8B5F4
:104C300004460F4606680021FFF709FE0346C0B987
:104C4000002508E00135BD4213D001212046FFF7C1
:104C5000F5FE034668B9E1693046FFF730FB0346CD
:104C600038B9226A1278E52AECD0002AEAD0002569
:104C7000EBE7042B01D01846F8BD0723FBE770B51E
:104C8000044606680121FFF7D2FF054608B1284611
:104C900070BDE1693046FFF712FB05460028F6D1EA
:104CA00020220021206AFFF7ECF80B2204F12401F6
:104CB000206AFFF7DDF80123F370E8E770B50446DA
:104CC000FFF7D3FA054648B92378032B08D0002212
:104CD00011466078FFF7A0F800B10125284670BDA5
:104CE0002379012BF3D104F130064FF40072002137
:104CF0003046FFF7C6F84AF6552104F22E20FFF79A
:104D0000A9F80F493046FFF7A9F80E4904F50570D8
:104D1000FFF7A4F8216904F50670FFF79FF8E16832
:104D200004F50770FFF79AF8E2690132E2620123A5
:104D300031466078FFF764F800232371C7E700BFAE
:104D4000525261417272416170B584B0019000911C
:104D5000164604A840F8041DFFF734FA041E1EDBB3
:104D6000114B03EB84031D6A25B12846FFF762F956
:104D700000232B70019B0BB100221A70019B0A4883
:104D800000EB8400036263B1012E02D0002004B066
:104D900070BD002201A96846FFF7EAFAF7E70B2089
:104DA000F5E70020F3E700BFAC0000202DE9F04359
:104DB00091B00191002800F00B810546164602F0E3
:104DC0003F073A4603A901A8FFF7D2FA044630B1DB
:104DD0000CB100232B60204611B0BDE8F083039B8B
:104DE0000493019904A8FFF7DCFE044660B99DF91D
:104DF0003F30002B51DB37F0010314BF01210021AC
:104E000004A8FFF75BF8044616F01C0F5BD0002CDB
:104E10004FD0042C43D047F00807002C62D117F084
:104E2000080F5FD0FFF704F8064601460C980E30D5
:104E3000FFF714F831460C981630FFF70FF80C9B6B
:104E40002022DA72039EDDF8308041463046FFF7BB
:104E50002CF98146002241463046FFF739F90021FE
:104E60000C981C30FEF7FAFF039B0122DA70B9F1AF
:104E7000000F37D0039BDE6A0022494604A8FFF7E3
:104E800099FD044670BB31460398FFF718FA0446B3
:104E900009F1FF33039AD36024E00624B4E7FFF757
:104EA00047F808B91224B6E704A8FFF7E8FE04465D
:104EB000B1E79DF8163013F0110F12D116F0040F60
:104EC000ABD008240EE06CB99DF8163013F0100F2B
:104ED0004CD116F0020F05D013F0010F02D00724B9
:104EE00016E00724A4B917F0080F01D047F04007D7
:104EF000039BDB6A6B620C9BAB6237F0010314BF50
:104F00000121002104A8FFF723F8286100285DD0C3
:104F1000002C7FF45DAF039EDDF8308041463046C3
:104F2000FFF7C3F8A86008F11C00FEF788FFE860EF
:104F30000021E9622E60F388AB802F7569752962C4
:104F4000A96105F130084FF400724046FEF799FF61
:104F500017F0200F3FF43CAFEE68002E3FF438AF5F
:104F6000AE61039B5F897F02A96805E00424CFE757
:104F7000B1F1FF3F0BD0F61B5CB9BE4209D9284600
:104F8000FFF7FDFB01460128F2D80224F0E70124D7
:104F9000F1E7E961002C7FF41BAFC6F30803002B97
:104FA0003FF416AF039F3846FFF762F808B90224B2
:104FB0000FE700EB56222A62012341467878FEF77C
:104FC00013FF00283FF404AF012402E70224FFE6A8
:104FD000092400E72DE9F04F85B0044688461546C0
:104FE00099460023C9F80030009003A9FFF719F98A
:104FF0000746002842D1677D002F3FD1237D13F063
:10500000020F00F0C880A369EB42C0F09A80DD4334
:1050100097E0E36A002B35D02046FFF735F80028EB
:1050200000F0B480012832D0B0F1FF3F32D0E0610F
:10503000A36803B9A06094F91430002B2DDB039B07
:105040000193E1691846FFF713F88246002835D02E
:10505000B2445FEA552B49D006EB0B03019A528903
:10506000934201D9A2EB060B5B465246414601989A
:105070004078FEF7C5FE20B301276775384605B0B6
:10508000BDE8F08FE1690098FFF732FCC7E702271F
:105090006775F3E701276775F0E70123226A04F1DA
:1050A000300103984078FEF7ABFE20B9237D03F072
:1050B0007F032375C3E701276775DFE7022767755D
:1050C000DCE7216AA1EB0A01594502D34FEA4B26DE
:1050D00028E04FF4007208EB412104F13000FEF7A4
:1050E000C7FE237D03F07F032375EFE7236A534553
:1050F00003D0A269E3689A423BD3C4F820A0A36915
:10510000C3F30803C3F50076B54200D22E4604F17E
:105110003000324641461844FEF7AAFE237D63F074
:105120007F032375B044A3693344A361E2689342CB
:1051300038BF1346E360D9F800303344C9F8003073
:10514000AD1B1DB3A169C1F30803002BD7D1039B8D
:105150005E89013E16EA51267FF46DAF00297FF487
:1051600058AFA06800287FF45AAF0098FFF7C0FB43
:1051700055E70123524604F1300101984078FEF7CB
:1051800033FE0028B9D00127677577E7237D43F008
:105190004003237572E7072770E770B582B00446B5
:1051A0000D460A290DD06368002B08DB5E1C2344E2
:1051B0001D733C2E09DC6660A3680133A36002B056
:1051C00070BD0D21FFF7E9FFEDE701AB324604F1B9
:1051D0000C012068FFF7FEFE019B9E4202D04FF0BB
:1051E000FF36E8E70026E6E74268002A10DB10B544
:1051F00082B0044601AB00F10C010068FFF7EAFE43
:1052000048B96268019B9A4208D1A06802B010BDFB
:105210004FF0FF3070474FF0FF30F7E74FF0FF30AF
:10522000F4E770B582B0044601A9FEF7FAFF034621
:1052300078B9227D12F0400F0BD012F0800F0BD105
:10524000FEF7F6FD0646616A0198FFF738F8034657
:1052500080B1184602B070BD0123226A04F130010A
:1052600001984078FEF7CCFD48BB237D03F07F0317
:105270002375E5E7A56AEB7A43F02003EB72A26899
:1052800029462068FEF724FFE16805F11C00FEF7BF
:10529000E5FD314605F11600FEF7E0FD002105F1C0
:1052A0001200FEF7D7FD019B0122DA700198FFF78B
:1052B00005FD0346227D22F040022275C9E7012345
:1052C000C7E710B582B00446FFF7ABFF034610B145
:1052D000184602B010BD01A92046FEF7A2FF034602
:1052E0000028F5D12069FEF785FE03460028EFD19E
:1052F00000222260ECE72DE9F04788B001908A4651
:105300001446002207A901A8FFF732F880460028BA
:105310005AD1079B23601A695D69A91E8A4208D980
:105320001A78012A08D0D3F8209000242646274670
:1053300032E0CAF8002047E002930224002704E08C
:105340000134079B5B69A34236D9214602A8FFF7C7
:1053500016FAB0F1FF3F2DD0012839D00028EFD147
:105360000137EDE709F1010649460798FEF7A7FF67
:10537000804608BB079C3034B1464FF400760DE000
:105380002046FEF757FD00B901370234023E01E026
:105390000434043E013D0FD0002EE3D0079B1B7860
:1053A000022BEDD02046FEF74AFD30F07043EFD1DE
:1053B0000137EDE74FF00108CAF80070079B1F6145
:1053C0001A7942F001021A71404608B0BDE8F08730
:1053D0004FF00208F0E710B594B0044601A8FEF7BC
:1053E0001BFF03E0013401A8FFF7D7FE2178002955
:1053F000F8D101A8FFF7F8FE14B010BD104B5B7A8E
:10540000DBB930B40E4B5D7AEDB200245C555D7AA9
:1054100003EB85056860587A184402725A7AD2B252
:10542000501CC0B2587230320A703A234B702F238E
:105430008B70CC70204630BC70470120704700BF95
:10544000D400002008B50022FFF7D8FF08BD0000F7
:105450002DE9F0418AB00025059506950795089538
:105460000995264CE36C43F00803E364E36C03F016
:1054700008030193019BE36C43F00403E364E36CD2
:1054800003F004030293029BE36C43F04003E364E4
:10549000E36C03F040030393039BFCF7A3FCE36C72
:1054A00043F00203E364E36C03F002030493049B00
:1054B000DFF850802A464FF480514046FCF73CFC10
:1054C0000F4C2A464FF480512046FCF735FC4FF430
:1054D00080570597012606960795089505A9404629
:1054E000FCF7B0FA059706960795089505A920469A
:1054F000FCF7A8FA0AB0BDE8F08100BF0010024036
:10550000000400480018004808B50F480F4B03601E
:105510004FF4827343604FF4004383604FF4407351
:10552000C3600023036143614FF400728261C36171
:105530000362436283620722C262036308234363F8
:10554000FDF70BFD08BD00BFA4010020003800409E
:1055500008B50948094B03604FF4E1334360002369
:105560008360C36003610C2242618361C361036293
:105570004362FEF7E8FB08BD3804002000500040FD
:1055800000B583B002A941F8040D4FF6FF73012264
:105590000348FEF736FB019803B05DF804FB00BF3B
:1055A0003804002030B5B9B02422002128A800F02A
:1055B000CBFA0024229423942494259426948822C0
:1055C0002146684600F0C0FA1025279501222D9249
:1055D00060232F9302233193329233922822349204
:1055E000072235923693379327A8FCF7A5FC0F23A3
:1055F000229303232393249425942694042122A800
:10560000FCF788FF009512946846FDF7B7F94FF450
:105610000070FCF79FFB39B030BD000010B5FCF7FF
:10562000A1F8FFF7BFFFFFF713FFFFF76DFFFFF7CD
:105630008FFF334C21463348FFF704FF01222146F8
:105640003148FFF781FB002845D0304800F0F8FAD8
:10565000C820FCF7A9F813222D492E48FFF7A6FB16
:1056600000283CD12C4A2D492548FFF744FE00284C
:1056700039D1294B1A685369023B548904FB03F062
:10568000FAF7E8FE0022264BFAF75EFFFBF76EF909
:10569000244B1860214B186800FB04F0FAF7DAFE7F
:1056A00000221F4BFAF750FFFBF760F91E4B186002
:1056B000E8B1184C21461D48FFF78DFE01461C48F5
:1056C00000F04AFA21461B48FFF785FE2046FFF707
:1056D000F8FD80B9FEE7184800F0B2FAB8E71748BD
:1056E00000F0AEFABEE7164800F0AAFAC1E7154886
:1056F00000F032FADDE7144800F0A2FAEAE700BF52
:10570000E86B0008A06A000808020020406B00084F
:105710006C6B00082C05002020050020A001002053
:105720000000E03F240500201C050020C06B00089D
:10573000E46B0008EC6B0008586B0008786B0008FD
:105740008C6B0008A86B0008006C000808B5074BBC
:1057500001221A70FBF7DDFF20B9044A137803F029
:10576000FE031370014B187808BD00BF180000201D
:1057700010B50446074B01221A70FBF7E9FE10B181
:10578000044B187810BD2046FFF7E0FF014B18705E
:10579000F6E700BF1800002008B5FFF7D7FF08BDE7
:1057A00000B583B008480190009300230846FBF73A
:1057B00009FF30B9FBF7ADFF0028FBD103B05DF85E
:1057C00004FB0120FAE700BF00E1F50500B583B056
:1057D00008480190009300230846FBF747FF30B9C3
:1057E000FBF797FF0028FBD103B05DF804FB012015
:1057F000FAE700BF00E1F505154B1B7813F0010F28
:1058000021D110B596B0144603291ED8DFE801F067
:1058100002050C13002016B010BD6846FBF7B6FE5B
:10582000149B23600020F6E76846FBF7AFFE159B4C
:1058300023800020EFE76846FBF7A8FE159B5B0A74
:1058400023600020E7E7032070470420E3E700BF60
:105850001800002082B00A4B1A6E42F001021A664C
:105860001A6E02F001020092009A9A6D42F0805284
:105870009A659B6D03F080530193019B02B07047C2
:105880000010024000B589B00023039304930593F0
:10589000069307930268144B9A4202D009B05DF850
:1058A00004FB03F5EC339A6D42F480429A659A6DDD
:1058B00002F480420192019ADA6C42F00202DA6448
:1058C000DB6C03F002030293029B4FF4204303932B
:1058D00002230493032306930523079303A9034894
:1058E000FCF7B0F8DAE700BF0038004000040048D9
:1058F00008B50268074B9A4200D008BD064A936D6E
:1059000023F4804393654FF420410448FCF784F965
:10591000F3E700BF003800400010024000040048D8
:1059200070B588B0002303930493059306930793FF
:1059300002681D4B9A4201D008B070BD03F5E033F8
:105940009A6D42F480129A659A6D02F48012009268
:10595000009ADA6C42F00802DA64DA6C02F00802AB
:105960000192019ADA6C42F00402DA64DB6C03F013
:1059700004030293029B0423039302260496032547
:1059800006950824079403A90848FCF75BF84FF430
:10599000805303930496002305930695079403A967
:1059A0000348FCF74FF8C7E700500040000C0048E0
:1059B000000800487047FEE7FEE7FEE7FEE7704795
:1059C0007047704708B5FBF7DDFE08BD70B50D46A2
:1059D0001646002404E0AFF300802870013401353E
:1059E000B442F8DB304670BD70B51646002405E0C1
:1059F0004D1C0878FFF7C4FD01342946B442F7DB9B
:105A0000304670BD08B503460B4A126842B10A4AD7
:105A1000106803446A46934206D8074A136008BDDB
:105A2000054A06491160F2E700F064F80C230360B0
:105A30004FF0FF30F3E700BFE000002060070020D8
:105A40004FF0FF3070474FF400534B600020704719
:105A500001207047002070470F49D1F8883043F487
:105A60007003C1F888300D4B1A6842F001021A60C9
:105A7000002098601A6822F0A85222F410221A60BE
:105A80004FF48052DA601A6822F480221A6098611A
:105A90004FF000638B60704700ED00E000100240A3
:105AA000DFF834D0002103E00C4B5B584350043145
:105AB0000B480C4B42189A42F6D30B4A02E00023E3
:105AC00042F8043B094B9A42F9D3FFF7C5FF00F0B7
:105AD00017F8FFF7A3FDFEE700800120C86C00085F
